:020000040800F2
:10000000501500204D01000873010008750100081B
:1000100000000000000000000000000000000000E0
:100020000000000000000000000000003126000871
:1000300000000000000000000B010008712600080D
:100040007D0100087D0100087D0100087D01000898
:100050007D0100087D0100087D0100087B02000889
:100060007D0100087D0100087D01000819020008DB
:100070007D0100087D0100087D0100087D01000868
:100080007D01000800000000000000007D01000864
:10009000000000007D0100087D0100080D1D000822
:1000A000000000007D0100087D010008712D00089E
:1000B000812D0008000000007D0100087D0100087E
:1000C0000348854600F096F800480047112F0008C5
:1000D00050150020084B19680868203080F3098803
:1000E000022080F31488BFF36F8F3FBCAE4608BC7C
:1000F00004BC62B6184700003C000020EFF31080FB
:1001000072B6704780F310887047EFF309800E4B8A
:100110001A6820381060F0C044464D4656465F4687
:10012000F0C008B572B603F063FB62B60CBC116890
:1001300008681030F0C8A046A946B246BB4680F316
:1001400009882038F0C818473C0000200C4880F38C
:1001500008880C480168090E0B4A914205D10B48EA
:100160000B4901600B480C4901600C4880470C4862
:100170000047FEE7FEE7FEE7FEE7FEE7FEE70000DA
:1001800050150020040000001F000000181002405D
:1001900001000000000001400000000019270008D5
:1001A000C100000830B50B46014600202022012482
:1001B00009E00D46D5409D4205D31D469540491B9B
:1001C0002546954040191546521E002DF1DC30BDE4
:1001D00003460B439B0703D009E008C9121F08C060
:1001E000042AFAD203E00B780370401C491C521E0B
:1001F000F9D27047064C0125064E05E0E36807CCAE
:100200002B430C3C98471034B442F7D3FFF75CFF04
:10021000F43B0008143C000810B5034800F07BF8DC
:10022000024800F078F810BDEC010020A801002081
:1002300010B50446054A2168881A1421FFF7B2FF59
:100240008000206401480838E06310BD08000240C7
:1002500030B50124056CAC40C56B6C60046863600C
:100260004468102C04D10468A2600468E16003E0D3
:100270000468A1600468E26030BD10B5012040024E
:1002800000F042F910BD0146086800680E22904354
:100290000A68106008680068400840000A6810603A
:1002A00001200A6C9040CA6B506001222120425408
:1002B00000BF00222020425400BF0020704770B5CC
:1002C000044600252120005D022803D00420A063FD
:1002D00001251EE0206800680E218843216808601F
:1002E0002068006840084000216808600120216CF7
:1002F0008840E16B486001212120015500BF0021A9
:100300002020015500BF606B002802D02046616BA1
:100310008847284670BD70B50446E06B05682068C4
:1003200006680420216C8840284000281BD0042047
:100330003040002817D0206800682021084000289D
:1003400005D12068006804218843216808600420E2
:10035000216C8840E16B4860E06A002852D020465A
:10036000E16A88474EE00220216C8840284000283E
:1003700023D00220304000281FD0206800682021B0
:100380000840002808D1206800680A2188432168B5
:1003900008600121212001550220216C8840E16B79
:1003A000486000BF00212020015500BFA06A00283E
:1003B00028D02046A16A884724E00820216C884084
:1003C000284000281ED00820304000281AD020687D
:1003D00000680E218843216808600120216C884054
:1003E000E16B48600120A06301212120015500BF7D
:1003F00000212020015500BF206B002802D020469C
:10040000216B884770BD000070B504460025002CA4
:1004100001D1012070BD022121200155206805680D
:1004200011480540A16860680843E16808432169F4
:10043000084361690843A1690843E169084305432A
:10044000206805602046FFF7F3FE0020A062E0620E
:1004500020636063A0630121212001550021202039
:1004600001550020D6E700000FC0FFFFF8B5044695
:100470000D4616461F460020009000BF2020005D5C
:10048000012801D10220F8BD01212020015500BF23
:100490002120005D01282DD10221212001550020BD
:1004A000A0632068006840084000216808603B465F
:1004B000324629462046FFF7CBFEE06A002806D0E8
:1004C000206800680E210843216808600BE020685E
:1004D00000680A2108432168086020680068042138
:1004E000884321680860206800680121084321686A
:1004F000086006E000BF00212020015500BF022057
:1005000000900098BFE7704710B504460548406961
:100510002040002804D0034844612046FFF7F3FF41
:1005200010BD00000004014078B5034600220024FD
:100530000020D9E0012696400D6835402C46002C5D
:100540007ED04D68022D02D04D68122D15D1D508F0
:10055000AE001D462035A8595507EE0E0F25B540B3
:100560000646AE4330465607F60E0D69B5402843A1
:10057000D508AD001E462036705118685600032578
:10058000B5400646AE4330460D79AD07AD0F560077
:10059000B540284318604D68012D08D04D68022DE4
:1005A00005D04D68112D02D04D68122D18D19868D4
:1005B00056000325B5400646AE4330465600CD688A
:1005C000B540284398605868012595400646AE43DB
:1005D000304610264D6835402D0995402843586017
:1005E000D86856000325B5400646AE43304656004F
:1005F0008D68B5402843D860012636074D683540E0
:10060000B54270D100BF3B4DAD6901263543394E2F
:10061000B5613546AD69ED07ED0F009500BF00BF30
:10062000354D9608B600A85995072E0F0F25B540F1
:100630000646AE4330460925ED06AB4203D100E045
:1006400051E000250AE02D4DAB4201D1012505E026
:100650002B4DAB4201D1022500E005259607360F50
:10066000B5402843244D9608B600A851254D28686A
:100670000546A5432846012636044D683540B54257
:1006800002D10546254328461E4D28606868054668
:10069000A5432846012676044D683540B54202D16F
:1006A000054625432846174D6860A8680546A543BA
:1006B0002846012636054D683540B54202D105462B
:1006C000254328460F4DA860E8680546A5432846FF
:1006D000012676054D683540B54202D105462543D1
:1006E0002846084DE860521C0D68D540002D00D00A
:1006F00020E778BD001002400800014000040048D7
:10070000000800480004014042694A4042617047C5
:10071000002A01D0816100E08162704701480068D1
:10072000704700000400002002464120805C202821
:100730002FD100BF4020805C012801D102207047EA
:1007400001234020835400BF242341208354106898
:1007500000684008400013681860106800680123B2
:100760001B039843136818601068006808431368F7
:10077000186010680068012318431368186020236C
:100780004120835400BF00234020835400BF002039
:10079000D5E70220D3E710B502460B4600214120E1
:1007A000805C20282ED100BF4020805C012801D130
:1007B000022010BD01244020845400BF2424412085
:1007C0008454106800684008400014682060106875
:1007D00001680F2424020846A04301461802014381
:1007E00010680160106800680124204314682060CC
:1007F00020244120845400BF00244020845400BFA2
:100800000020D6E70220D4E77047704770B5044651
:100810002068856920680668FF200130284000288C
:100820000AD080203040002806D0606C01210843A7
:10083000606408022168C861012080022840002805
:100840000AD080203040002806D0606C0821084380
:100850006064C8012168C861012040022840002866
:100860000AD080203040002806D0606C0221084366
:10087000606408022168C861606C0B210840002890
:1008800003D0616C204601F037FB70BD70B50446A3
:100890002068856920680668606B002804D03246AD
:1008A00029462046636B984770BD704710B50446D3
:1008B000002C01D1012010BD4120005D002805D190
:1008C000002140200155204600F05CF82421412001
:1008D00001552068006840084000216808600F2129
:1008E00009066068884321680861206880680121E2
:1008F000C903884321688860E068012806D1012186
:10090000C903A06808432168886005E021218902A5
:10091000A068084321688860E068022802D180024C
:10092000216848602068406814490843216848608D
:100930002068C0680121C90388432168C8606169D3
:1009400020690843A169090208432168C860216A37
:10095000E0690843216808602068006801210843B5
:10096000216808600020606420214120015500209A
:10097000206300214220015500209CE700800002F6
:100980007047000010B586B004461E4920688842B2
:1009900035D1022001901220029001200390032003
:1009A00004900120059001A91748FFF7BDFD012023
:1009B00080020190122002900120039003200490F5
:1009C0000420059001A90920C006FFF7ADFD00BF76
:1009D0000E48C0690121490508430C49C861084611
:1009E000C069012149050840009000BF00BF0022F6
:1009F0000321172000F076F8172000F067F806B002
:100A000010BD0000005400400014004800100240D7
:100A10007047704702480068401C014908607047F1
:100A20000400002010B5064800681021084304495E
:100A30000860032000F006F800F018F8002010BD50
:100A40000020024070B5044600F002FA06467D21FF
:100A5000C900FFF7A7FB054600F09CFD00222146D8
:100A6000501E00F03FF8002070BD000008B500BF28
:100A70001548806901210843134988610846806947
:100A8000C007C00F009000BF00BF00BF0846C0698C
:100A9000090408430C49C8610846C06909040840B4
:100AA000009000BF00BF00221146501F00F01AF84E
:100AB00000220321481F00F015F800220321081F1F
:100AC00000F010F808BD00000010024000BFC20690
:100AD000D20E01219140024A116000BF7047000010
:100AE00000E100E070B504460D4616462946204652
:100AF00001F062FD70BD0000F8B504460026002537
:100B0000012109042068084088427AD10027594809
:100B1000C0690903084000280DD100BF5548C069CD
:100B200008435449C8610846C06909040840009058
:100B300000BF00BF012750480068FF210131084075
:100B4000002816D14C48006808434B490860FFF75D
:100B5000E5FD064606E0FFF7E1FD801B642801D9AC
:100B60000320F8BD44480068FF21013108400028F7
:100B7000F1D04048006A0321090208400546002DD3
:100B80002DD060680840A84229D03A48006A8843BE
:100B900005463848006A01210904084335490862BE
:100BA0000846006A01210904884332490862084660
:100BB0000562E807C00F002811D0FFF7AFFD064619
:100BC00007E0FFF7ABFD801B2C49884201D90320C9
:100BD000C7E72848006A022108400028F1D02548CC
:100BE000006A0321090288436168084321490862B9
:100BF000012F05D10846C069090488431D49C86111
:100C000000BF2078C007C00F002807D01948006B2C
:100C100080088000A16808431649086320212068E5
:100C20000840202807D11348006B10218843E16851
:100C3000084310490863012149042068084088429C
:100C400007D10C48006B802188436169084309493A
:100C500008630121890220680840884207D10548BD
:100C6000006B402188432169084302490863002042
:100C700077E7000000100240007000408813000079
:100C800070B504460D4600266C480068C007C00FCA
:100C9000A8420ED2694800684008400028436749CE
:100CA000086008460068C007C00FA84201D00120B4
:100CB00070BD022120680840022807D160484068C2
:100CC000F0218843A16808435D4948602078C00747
:100CD000C00F00287ED06068012808D158480068FD
:100CE000012149040840002821D10120E0E7606883
:100CF000022808D15248006801214906084000280E
:100D000015D10120D4E76068032808D14C48406B16
:100D1000012109040840002809D10120C8E74848FA
:100D2000006802210840002801D10120C0E74448A2
:100D30004068800880006168084341494860FFF7C7
:100D4000EDFC0646606801280FD107E0FFF7E6FCDE
:100D5000801B3C49884201D90320A9E738484068F4
:100D60000C2108400428F1D134E0606802280FD13A
:100D700007E0FFF7D3FC801B3249884201D90320EA
:100D800096E72F4840680C2108400828F1D121E05F
:100D9000606803280FD107E0FFF7C0FC801B2949DA
:100DA000884201D9032083E7254840680C21084088
:100DB0000C28F1D10EE007E0FFF7B0FC801B2149C1
:100DC000884201D9032073E71D4840680C21084080
:100DD0000028F1D119480068C007C00FA8420ED9F9
:100DE0001648006840084000284314490860084637
:100DF0000068C007C00FA84201D0012058E70421B5
:100E000020680840042808D10D48406807210902DD
:100E10008843E16808430A49486000F031F808490E
:100E20004968F02211400909074A515CC840074946
:100E300008600320FFF706FE002039E7002002408B
:100E40000010024088130000783B000800000020DA
:100E500001480068704700000000002000B5FFF75F
:100E6000F7FF05494968072212021140090A034A9F
:100E7000515CC84000BD000000100240883B0008E3
:100E8000F0B589B02FA001460EC9C06805AC0EC4EC
:100E9000089030A001460EC9C06801AC0EC4049091
:100EA0000024002600270025002000902D484468DB
:100EB0000C20204000283DD0042804D0082805D06C
:100EC0000C2836D132E02848009036E00F2080040C
:100ED0002040800C05A90D5C2248C06A0007000F65
:100EE00001A90E5C0320C0032040012109048842AF
:100EF00006D131461C48FFF755F96843074613E011
:100F00000320C00320400321C903884206D1314693
:100F10001648FFF747F96843074605E0314612488F
:100F2000FFF740F968430746009706E00F48009036
:100F300003E000BF0C48009000BF00BF009809B05C
:100F4000F0BD000002030405060708090A0B0C0D9A
:100F50000E0F10100102030405060708090A0B0C06
:100F60000D0E0F100010024000127A00006CDC021F
:100F7000F8B5044600252078C007C00F002872D0BD
:100F8000FA4840680C21084004280CD0F748406813
:100F90000840082813D1F54840684903084001215A
:100FA000090488420BD1F148006801214904084036
:100FB00000286BD06068002868D10120F8BD00BF10
:100FC0006068012807D1E948006801210904084345
:100FD000E649086031E0606800280ED1E348006807
:100FE000012109048843E14908600846006801219D
:100FF00089048843DD4908601FE0606805280ED138
:10100000DA480068012189040843D8490860084685
:101010000068012109040843D44908600DE0D34861
:101020000068012109048843D04908600846006827
:10103000012189048843CD49086000BF6068002809
:1010400012D0FFF76BFB054606E0FFF767FB401B7E
:10105000642801D90320B1E7C4480068012149048C
:1010600008400028F1D011E0FFF758FB054606E0E4
:10107000FFF754FB401B642801D903209EE7BB48BF
:1010800000680121490408400028F1D102212068AC
:101090000840022862D1B54840680C210840002869
:1010A0000CD0B2484068084008281CD1AF484068BE
:1010B000490308400121C903884214D1AB480068A4
:1010C00002210840002804D0E068012801D0012056
:1010D00074E7A6480068F82188432169C9000843DD
:1010E000A24908603AE0E068002820D09F480068E4
:1010F000012108439D490860FFF710FB054606E003
:10110000FFF70CFB401B022801D9032056E7974844
:101110000068022108400028F2D094480068F821B5
:1011200088432169C90008439049086016E08F4848
:101130000068400840008D490860FFF7EFFA054657
:1011400006E0FFF7EBFA401B022801D9032035E740
:1011500086480068022108400028F2D10821206852
:101160000840082831D1E069002817D07F48406A3C
:10117000012108437D494862FFF7D0FA054606E0A1
:10118000FFF7CCFA401B022801D9032016E7774865
:10119000406A022108400028F2D016E07348406AF5
:1011A0004008400071494862FFF7B8FA054606E07A
:1011B000FFF7B4FA401B022801D90320FEE66B4872
:1011C000406A022108400028F2D10421206808402A
:1011D000042871D100266548C069890608400028A6
:1011E0000DD100BF6148C06908436049C861084625
:1011F000C06909040840009000BF00BF01265C4898
:101200000068FF2101310840002816D158480068C5
:10121000084357490860FFF781FA054606E0FFF7E3
:101220007DFA401B642801D90320C7E650480068B6
:10123000FF21013108400028F1D000BFA06801283B
:1012400006D14A48006A01210843484908622BE058
:10125000A06800280CD14548006A40084000434976
:1012600008620846006A04218843404908621BE07E
:10127000A06805280CD13D48006A042108433B4979
:1012800008620846006A01210843384908620BE0F9
:101290003648006A40084000344908620846006A3F
:1012A000042188433149086200BFA068002813D098
:1012B000FFF734FA054608E029E0FFF72FFA401B54
:1012C0002C49884201D9032078E62848006A022187
:1012D00008400028F1D011E0FFF720FA054607E0AA
:1012E000FFF71CFA401B2349884201D9032065E619
:1012F0001E48006A022108400028F1D1012E05D1C4
:101300001A48C069310788431849C86100BF1021D5
:101310002068084010285FD1606901282CD113484B
:10132000406B04210843114948630846406B012182
:1013300008430E494863FFF7F1F9054606E0FFF759
:10134000EDF9401B022801D9032037E60748406B1E
:10135000022108400028F2D00448406BF82188435D
:10136000A169C90008430149486335E00010024003
:1013700000700040881300006069401D00280FD1F4
:101380007A48406B04218843784948630846406B9B
:10139000F8218843A169C9000843744948631BE0E8
:1013A0007248406B04210843704948630846406B0B
:1013B000400840004863FFF7B1F9054606E0FFF733
:1013C000ADF9401B022801D90320F7E56748406BBF
:1013D000022108400028F2D120212068084020285E
:1013E00052D1624840680C2108400C280AD05F485E
:1013F00040680840082811D15C484068490308400B
:1014000088420BD15948406B01210904084000284B
:101410003AD0206A012837D00120CFE5206A002881
:1014200019D05248406B0121090408434F494863D1
:10143000FFF774F9054606E0FFF770F9401B022834
:1014400001D90320BAE54948406B0121090408404D
:101450000028F1D018E04548406B01210904884379
:1014600042494863FFF75AF9054606E0FFF756F987
:10147000401B022801D90320A0E53C48406B012114
:10148000090408400028F1D1606A00286CD0374870
:1014900040680C210840082864D0606A022847D1BF
:1014A0003248006801210906884330490860FFF787
:1014B00035F9054606E0FFF731F9401B022801D94E
:1014C00003207BE5294800680121490608400028DF
:1014D000F1D100BF2548C06A00090001216B084313
:1014E0002249C862A16AE06A0843204949687B2210
:1014F000D203914308431D49486000BF0846006875
:1015000001210906084319490860FFF707F9054654
:1015100006E0FFF703F9401B022801D903204DE53F
:10152000124800680121490608400028F1D01BE05C
:101530000E4800680121090688430C490860FFF73E
:10154000EDF8054606E0FFF7E9F8401B022801D94F
:10155000032033E5054800680121490608400028BA
:10156000F1D101E0012029E5002027E5001002402B
:10157000042806D10649096904221143044A11616D
:1015800005E00349096904229143014A116170474A
:1015900000E000E070B504462546681E094988420F
:1015A00001D901200CE0681E074948610321081F8A
:1015B00001F002F80020044988610720086100203A
:1015C00070BD0000FFFFFF0000E000E0704710B5B5
:1015D00004466920005D212813D12068806880219D
:1015E000084000280DD02068806888432168886002
:1015F000206E002802D0206EFEF745FE204601F046
:1016000002FA6A20005D222813D1206880684021F8
:10161000084000280DD020688068884321688860D1
:10162000606E002802D0606EFEF72DFE204601F0AD
:10163000C9F9002010BD7047F8B504462068C56997
:10164000206806682807000F0090009800280BD13A
:1016500020202840002807D020203040002803D038
:10166000204601F0DAF9F8BD206887680098002864
:101670007ED0F807C00F002804D1FF202130304071
:101680000028F5D0E807C00F00280BD0FF2001305C
:101690003040002806D0012021680862E06E012158
:1016A0000843E0660220284000280AD0F807C00F4F
:1016B000002806D0022021680862E06E0421084359
:1016C000E0660420284000280AD0F807C00F002850
:1016D00006D0042021680862E06E02210843E0661B
:1016E0000820284000280ED020203040002803D1B8
:1016F000F807C00F002806D0082021680862E06EB5
:1017000008210843E066E06E002841D020202840F0
:10171000002806D020203040002802D0204601F0CA
:101720007CF9E06E08210840002805D12068806817
:1017300040210840002826D0204601F043F92068C7
:10174000806840210840002819D0206880688843BC
:1017500021688860606E00280DD02648616E48635D
:10176000606EFEF7ACFD002812D0606E416B00E0A9
:101770000FE088470CE02046FFF75DFF08E02046B9
:10178000FFF759FF04E02046FFF755FF0020E06611
:1017900069E7012000052840002811D001208005BC
:1017A000384000280CD00120000521680862202163
:1017B000692001556A2001552046FFF707FF52E7CF
:1017C00080202840002807D080203040002803D007
:1017D000204601F05BFA46E740202840002807D069
:1017E00040203040002803D0204601F0FCF83AE7C2
:1017F00000BF38E7FD28000810B50446002C01D1D1
:10180000012010BDA069002800D000E000BF6920C1
:10181000005D002805D1002168200155204600F018
:101820002DF82421692001552068006840084000F7
:1018300021680860204601F037F9012800D1E0E76F
:10184000606A002802D0204600F0A0FF20684068AF
:101850000921C902884321684860206880682A21DC
:101860008843216888602068006801210843216856
:101870000860204601F002F8C3E7000010B586B00A
:10188000044648492068884226D100BF46488069FE
:101890000121890308434449886108468069012180
:1018A00089030840009000BF00BFC02001900220C3
:1018B000029000200390032004900020059001A9CD
:1018C0003A48FEF731FE002203211B20FFF70AF9F8
:1018D0001B20FFF7FBF863E03549206888425FD1A1
:1018E00000BF3148C0690121490408432E49C8613D
:1018F0000846C069012149040840009000BF00BFAC
:101900002C480190022002900020039003200490B4
:101910000120059001A90920C006FEF705FE264812
:101920002649086000204860002124488160802109
:10193000C1600021016141618161C161FEF764FD07
:10194000002803D0D5211EA001F048FA00BF1B4893
:101950006066446200BF18481438204908601020AF
:10196000486000211D4881608021C1600021016123
:1019700041618161C161FEF747FD002803D0E52187
:101980000FA001F02BFA00BF14482066446200BF8C
:10199000002203211C20FFF7A5F81C20FFF796F872
:1019A00006B010BD0038014000100240000400489D
:1019B000004400400480000058000240A8010020BC
:1019C0002E2E2F5372632F73746D333266307878F6
:1019D0005F68616C5F6D73702E630000EC01002026
:1019E00070B504460D4616466A20005D202854D185
:1019F000002D01D0002E01D1012070BD012109036D
:101A0000A068884208D12069002805D1E807C00FE6
:101A1000002801D00120F0E700BF6820005D012808
:101A200001D10220E9E701216820015500BF656569
:101A3000582006530020E06622216A2001551848EC
:101A4000616E88621748616EC8621748616E0863EC
:101A50000020616E48632368194624313346626D65
:101A6000606EFEF703FD00BF00216820015500BF36
:101A700020680068FF210131084321680860206860
:101A800080680121084321688860206880684021BF
:101A90000843216888600020AFE70220ADE700001E
:101AA0006B290008B72900081529000810B503465E
:101AB0006A20C05C20286AD1002901D0002A01D107
:101AC000012010BD012424039868A04208D11869A0
:101AD000002805D1C807C00F002801D00120F0E779
:101AE00000BF6820C05C012801D10220E9E7012481
:101AF0006820C45400BF59655820C2525A20C252AF
:101B000000BF24039868A0420AD11869002803D1B5
:101B1000204C5C20C45220E0FF245C20C4521CE016
:101B2000986800280AD11869002803D1FF245C2096
:101B3000C45212E07F245C20C4520EE0012424072A
:101B40009868A04209D11869002803D17F245C203D
:101B5000C45202E03F245C20C45200BF0020D8667B
:101B600022246A20C45400BF00246820C45400BF4B
:101B700018688068012420431C68A0601868006809
:101B8000FF24213420431C682060002099E70220B4
:101B900097E70000FF01000010B504461948844291
:101BA0002ED1194800781949194A127888541848D2
:101BB0000078401C1649087014480078AA281AD1E9
:101BC000124840785A2816D11048C07A0C3009784B
:101BD000884210D1002005E00C49095C0D4A1154DF
:101BE000411CC8B20A4909788842F5DB01F08EF938
:101BF000002007490870012203490248FFF756FFF9
:101C000010BD00003801002019000020F70300205B
:101C1000180000202F0300207047FEB504460D4633
:101C200016461F46002001906920005D20286AD1D9
:101C3000002D01D0002E01D10120FEBD012109039C
:101C4000A068884208D12069002805D1E807C00FA4
:101C5000002801D00120F0E700BF6820005D0128C6
:101C600001D10220E9E701216820015500BF0020D1
:101C7000E066212169200155FEF750FD01905020BA
:101C800006535220065325E05220005B401E81B2CD
:101C9000522001530097002280212046019B01F031
:101CA0002EF8002801D00320C7E701210903A0680E
:101CB00088420BD12069002808D10295029D28880E
:101CC000C005C00D21680885AD1C03E028786D1C97
:101CD000216808855220005B0028D5DC009700228F
:101CE00040212046019B01F00AF8002801D0032082
:101CF000A3E720216920015500BF0021682001557C
:101D000000BF002099E7022097E7704710B5084808
:101D100000688069072109020840002803D00448B0
:101D2000FEF774FD02E00248FEF7B0FD10BD0000B2
:101D30007C00002070B505466C6A2068406801216F
:101D4000C9030843216848600020A16B4863E16B28
:101D500048634120005D602806D1202141200155C3
:101D60002046FEF751FD02E02046FEF79EFD70BDC5
:101D700010B503460A460021D007C00F002809D03D
:101D8000422001434120C05C28242040282801D063
:101D9000B020014302201040022809D14420014311
:101DA0004120C05C28242040282801D0B0200143D5
:101DB00004201040042801D1B82001431120104014
:101DC000112801D19020014312201040122801D186
:101DD0002020014312201040122801D1402001434D
:101DE0001868006888431C682060002010BD0168E6
:101DF0008969022211404908002902D000210268A5
:101E0000916201688969C907C90F01225140514097
:101E1000002904D101688969114302689161704702
:101E2000F8B5044600270025002600200090412038
:101E3000005D28210840282854D1206880690121AC
:101E400009040840070C206880697F214904084084
:101E5000050C206880688605B60D2068C068FE21E4
:101E600008400090E06802282DD106202840F1119A
:101E700006221140884216D13546A06C401CA06451
:101E8000A06C022836D10020A06408202168C86117
:101E900000BF00214020015500BF2A463946204698
:101EA000FEF7B3FC26E0009D04212046FFF760FF0B
:101EB00000BF00214020015500BF2A463946204678
:101EC000FEF7A3FC16E004212046FFF751FF00BFF8
:101ED00000214020015500BF2A4639462046FEF722
:101EE00094FC07E008202168C86100BF0021402061
:101EF000015500BFF8BD000070B504460D46002135
:101F0000422001553F48E06200206085606C284314
:101F100060644120005D282807D04120005D292809
:101F200003D04120005D2A280BD103212046FFF772
:101F30001FFF2821412001550020206332486063A3
:101F40000DE007212046FFF713FF4120005D6028C8
:101F500002D02021412001550020206360632068C9
:101F60000068012189030840884215D12068006873
:101F70008843216808602548A16B486300BF0021A1
:101F80004020015500BFA06BFEF799F9002838D01A
:101F9000A06B416B884734E0206800680121C903C9
:101FA0000840884215D1206800688843216808608D
:101FB0001648E16B486300BF00214020015500BF77
:101FC000E06BFEF77CF900281BD0E06B416B884783
:101FD00017E04120005D60280BD1202141200155F0
:101FE00000BF00214020015500BF2046FEF70CFC39
:101FF00007E000BF00214020015500BF2046FEF74A
:1020000054FC70BD0000FFFF25220008351D0008AC
:1020100070B504460D461A48E06200202063202176
:102020004120015500214220015500206063042019
:102030002840002813D02068406AC1B2626A501C50
:1020400060621170208D002809D0208D401E2085EF
:10205000608D401E6085606C042108436064072128
:102060002046FFF785FE10202168C86100BF0021CF
:102070004020015500BF2046FEF782FC70BD0000E5
:102080000000FFFF70B504460D4620202168C8619E
:1020900008202168C86107212046FFF769FE2068F3
:1020A00040680121C90308432168486020684068EE
:1020B00041490840216848602046FFF798FE2068A3
:1020C0000068012189030840884205D02068006823
:1020D0004900084088420BD14120005D212803D1EE
:1020E000A06B0068406802E0E06B006840686085B3
:1020F000608D002803D0606C0421084360640420D4
:102100002840002813D02068406AC1B2626A501C7F
:1021100060621170208D002809D0208D401E20851E
:10212000608D401E6085606C04210843606400205F
:10213000206300214220015500206063606C00286C
:102140000CD0616C2046FFF7D7FE4120005D2828A7
:1021500031D129462046FFF75BFF2CE0E06A1749A2
:1021600088420DD00846E06220214120015500BF81
:1021700000214020015500BF2046FEF701FC1AE077
:102180004120005D22280BD120214120015500BFB4
:1021900000214020015500BF2046FEF739FC0AE02F
:1021A00020214120015500BF00214020015500BFE2
:1021B0002046FEF72EFC70BD00E800FE0000FFFF89
:1021C00010B504460021422001554120005D292818
:1021D00011D12821412001552120206301212046D1
:1021E000FFF7C6FD00BF00214020015500BF20467B
:1021F000FEF70FFC14E04120005D2A2810D12821B1
:10220000412001552220206302212046FFF7B0FD26
:1022100000BF00214020015500BF2046FEF7F8FB1B
:1022200010BD000070B504460D46164600BF4020A4
:10223000005D012801D1022070BD0121402001551F
:1022400000BF10202840002834D010203040002843
:1022500030D0608D002825D1E06A4906884202D03E
:10226000E06A884208D14120005D282804D129462F
:102270002046FFF7CDFE70E0E06A414988420DD06C
:102280004120005D292809D110202168C86120461D
:10229000FFF7ADFD2046FFF793FF5EE010202168B9
:1022A000C8615AE010202168C861606C04210843AD
:1022B000606452E00420284000281ED004203040F2
:1022C00000281AD0608D00280CD02068406AC1B266
:1022D000626A501C60621170208D401E2085608DE6
:1022E000401E6085608D002837D1E06A244988420D
:1022F00033D02046FFF764FF2FE008202840002855
:1023000008D008203040002804D029462046FFF796
:1023100087FD22E00220284000281ED00220304005
:1023200000281AD0608D00280CD0616A481C6062B9
:10233000087821688862608D401E6085208D401E6F
:1023400020850AE0E06A01210906884202D0E06A9D
:10235000002802D12046FFF733FF20202840002824
:1023600007D020203040002803D029462046FFF720
:1023700089FE00BF00214020015500BF00205BE71F
:102380000000FFFF08B500BF0A484069012108436B
:102390000849486108464069C007C00F009000BF67
:1023A00000BF002203210B20FEF79CFB0B20FEF751
:1023B0008DFB08BD0010024000B587B000BF2F485C
:1023C00040690121890508432C4948610846406954
:1023D000012189050840019000BF00BF00BF2748C8
:1023E000406949110843254948610846406901216F
:1023F00049040840019000BF00BF00BF1F4840696A
:10240000490008431D494861084640690121890483
:102410000840019000BF00BF012208211848FEF7C4
:1024200077F90120400202901648039000200490A2
:1024300002A90920C006FEF777F8012000030290E8
:1024400000200390049002A90920C006FEF76CF852
:10245000082002900120039000200490059002A91A
:102460000748FEF761F8002203210720FEF73AFB38
:102470000720FEF72BFB07B000BD00000010024054
:10248000000400480000111010B5184818490860F1
:10249000184848608E21164881600121C1600021E2
:1024A000016141618161C1610162FEF7FFF90028AC
:1024B00004D0FF21173110A000F090FC00210C483F
:1024C000FEF732F9002804D0FF211E310AA000F0E7
:1024D00085FC00210648FEF75EF9002804D0FF21A4
:1024E000253105A000F07AFC10BD0000005400402A
:1024F0007C0000200B0200002E2E2F5372632F6DE4
:1025000061696E2E6300000010B50F480F49086026
:102510004B20C001486000210C488160C16001610E
:102520000C21416100218161C161016200200749E4
:1025300048620846FFF760F9002804D0FF213A31CD
:1025400003A000F04BFC10BD00380140C800002083
:102550002E2E2F5372632F6D61696E2E6300000063
:1025600010B50F480F4908604B20C001486000219A
:102570000C488160C16001610C21416100218161D1
:10258000C16101620020074948620846FFF734F93B
:10259000002804D0FF214F3103A000F01FFC10BD24
:1025A00000440040380100202E2E2F5372632F6DFF
:1025B00061696E2E6300000010B5002819DA1A4A0E
:1025C00003071B0F083B9B089B00D2588307DC0EB8
:1025D000FF23A3409A438B071B0E8407E40EA340FE
:1025E0001A43114B0407240F083CA408A4001A51F5
:1025F00018E00E4A03231B02D21883089B00D2580E
:102600008307DC0EFF23A3409A438B071B0E84072E
:10261000E40EA3401A43054B032424021B1984082B
:10262000A4001A5110BD00001CED00E000E100E024
:10263000704700BF012000F0B0FCFBE700BF7D2029
:10264000C00000F0AAFC08210148FEF75DF8F6E79B
:102650000004004805480068006810210843034949
:102660000968086000BF00F067FFFCE73801002040
:1026700010B5FEF7CFF900F0A2FC10BD30B597B051
:1026800002200A9001200D9010200E90002013903F
:102690000AA8FEF76DFC002803D0E3211AA000F081
:1026A0009DFB0720069000200790089009900021CC
:1026B00006A8FEF7E5FA002803D0F02112A000F0EA
:1026C0008DFB212000900020029003906846FEF7C9
:1026D00013FA002803D0F8210BA000F07FFBFEF7CF
:1026E000B7FB05467D21C900FDF75CFD0446FEF7FA
:1026F00051FF0420FEF73CFF00220321081FFEF7D4
:10270000F1F917B030BD00002E2E2F5372632F6DDC
:1027100061696E2E630000001948006801210843BA
:10272000174908600846406816490840144948603F
:1027300008460068144908401149086008460068C6
:102740000121890488430E490860084640683F21FA
:10275000090488430A4948600846C06A0009000124
:10276000C8620846006BFF21D431884304490863DE
:102770000846406B4008400048630020886070476E
:10278000001002400CB8FF08FFFFF6FE818CC9075D
:10279000C90F002908D001684968012252049143F9
:1027A000826A1143026851600222416A1140002985
:1027B00007D001684968D2039143C26A1143026895
:1027C00051600422416A1140002907D0016849681C
:1027D00012049143026B1143026851600822416A5E
:1027E0001140002907D00168496812039143426BE8
:1027F0001143026851601022416A1140002907D03C
:102800000168896812029143826B114302689160EA
:102810002022416A1140002907D00168896812020C
:102820009143C26B1143026891604022416A11409A
:10283000002915D00168496892039143026C114345
:102840000268516001221205016C914208D10168B1
:102850004968032252059143426C1143026851605A
:102860008022416A1140002907D00168496812039B
:102870009143826C114302685160704738B5044639
:1028800000250020E066FDF749FF0546194920684C
:10289000884223D1206800680821084008280BD10D
:1028A00015482B46002289040090204600F027FAA4
:1028B000002801D0032038BD2068006804210840AA
:1028C00004280BD10C482B46002209050090204615
:1028D00000F015FA002801D00320ECE72021692040
:1028E00001556A20015500BF00216820015500BF35
:1028F0000020E0E700380140FFFFFF0170B505460A
:102900006C6A00215A200153522001532046FEF7E1
:1029100092FE70BD70B505466C6A6920005D212885
:102920000BD12068806880210840002805D0002154
:1029300052200153204600F066F86A20005D2228EC
:102940000BD12068806840210840002805D0002174
:102950005A200153204600F035F8E06E102108435C
:10296000E0662046FEF767FE70BD70B505466C6AEE
:102970002868006820210840002818D100215A202A
:10298000015320680068FF210131884321680860F5
:10299000206880684008400021688860206880685E
:1029A000402188432168886020216A200155204603
:1029B000FFF7F2F870BD70B50446656A2846FFF768
:1029C0002BF970BD01680968FF222132914302682A
:1029D00011600168896849084900026891602022F5
:1029E0006A210A54704710B50446206800684021E7
:1029F0008843216808602021692001552046FFF79F
:102A000084F9002010BD01680968C0229143026862
:102A10001160202269210A547047F8B504465C20F1
:102A2000075B6A20005D222836D12068858C012151
:102A30000903A06888420AD12069002807D1666D81
:102A4000284638403080606D801C606505E0F8B233
:102A50002840626D511C616510705A20005B401E59
:102A600081B25A200153002914D120680068FF2147
:102A70002131884321680860206880684008400050
:102A80002168886020216A2001552046FFF784F8DC
:102A90000020F8BD0020FCE7206880690821084379
:102AA000216888610220F4E7FEB50446002510265F
:102AB00000270020029001902169A0680843616905
:102AC0000843E169084305462068006868490840F2
:102AD000284321680860206840680321090388436F
:102AE000E168084321684860216AA06908430546F7
:102AF000206880680B210902884328432168886088
:102B000000BF5C492068884217D15B48006B800792
:102B1000800F002806D0012808D0022808D00328FA
:102B200008D101E0002607E0022605E0042603E0C4
:102B3000082601E0102600BF06E0504920688842C0
:102B400001D1002600E0102600BF0121C903E06981
:102B5000884249D1042E20D004DC002E07D0022E5A
:102B600032D111E0082E25D0102E2DD12DE0FEF708
:102B700075F9400061684908401800906168FDF7E8
:102B800011FB80B2029023E061684A083C4BD018E8
:102B9000FDF708FB80B202901AE0FEF771F94000E1
:102BA00061684908401800906168FDF7FBFA80B23F
:102BB00002900DE061684A0801231B04D018FDF75C
:102BC000F1FA80B2029003E000BF0120019000BF43
:102BD00000BF2C4902980840074602980007400FA2
:102BE00007432068C76040E0042E21D004DC002E9B
:102BF00007D0022E34D111E0082E26D0102E2FD16E
:102C00002FE0FEF72BF961684908401800906168D1
:102C1000FDF7C8FA80B22168C86025E061684A08FB
:102C2000194BD018FDF7BEFA80B22168C8601BE0CE
:102C3000FEF726F961684908401800906168FDF7C1
:102C4000B1FA80B22168C8600EE061684A080123C9
:102C5000DB03D018FDF7A6FA80B22168C86003E054
:102C600000BF0120019000BF00BF0198FEBD000021
:102C7000F369FFEF003801400010024000440040BB
:102C80000024F400F0FF000000127A0001466920E1
:102C9000405C212831D15220405A00280DD10868CB
:102CA0000068802398430B68186008680068402318
:102CB00018430B6818600020704701231B038868C5
:102CC00098420CD10869002809D1CA6C1088C00547
:102CD000C00D0B681885C86C801CC86405E0CB6CFF
:102CE000581CC86418780B6818855220405A401E3A
:102CF00083B2522043520020DEE70220DCE7FFB51A
:102D000081B004460D4617460A9E24E0701C002838
:102D100021D0002E05D0FDF701FD0499401AB042E4
:102D200019D920680068FF21A13188432168086013
:102D30002068806840084000216888602021692060
:102D400001556A20015500BF00216820015500BFD0
:102D5000032005B0F0BD2068C0692840A84201D119
:102D6000012000E00020B842D0D00020F1E70000B0
:102D700010B50248FEF760FC10BD0000C80000203E
:102D800010B51148FEF758FC0F4800680F498842FB
:102D900018D10D480068C0691021084000090028BA
:102DA00010D010200849096808620748FEF70FFC98
:102DB000074800684468FF20001B0649087001208E
:102DC0000549087010BD0000380100200044004093
:102DD000A8010020150000201400002000BFFEE71D
:102DE0000FB410B503A9044B044A029800F017F879
:102DF00010BC08BC04B01847F12E00087800002071
:102E000002E008C8121F08C1002AFAD170477047B3
:102E1000002001E001C1121F002AFBD17047FFB55D
:102E200081B00546002706E025280AD0049A0399B8
:102E300090476D1C7F1C28780028F5D1384605B0D6
:102E4000F0BD002269786D1C10462E2913D16978D7
:102E500004226D1C2A2909D102996D1C01C9029115
:102E600009E00A235843303808186D1C29780B46AE
:102E7000303B092BF5D92B78002BDFD0632B07D003
:102E8000732B10D0049A1846039990477F1C2DE0AD
:102E900002996C460B782370091D02910021617024
:102EA0006E46012104E0029940C902910021C94304
:102EB00052070AD5002400E0641C84420DDA8C42DB
:102EC000FADB325D002AF7D107E0002400E0641C41
:102ED0008C42FCDB305D0028F9D13F1904E03078EA
:102EE000049A761C03999047641EF8D26D1CA2E7E1
:102EF00013B50C46034B012269460348FEF78DFECD
:102F000000981CBDFFFF0000380100207047000042
:102F100090B0FDF787FDFFF7B1FBFFF74DFAFFF724
:102F200031FAFFF71DFBFFF7AFFAFFF7EDFA1422B6
:102F300012490BA8FDF74CF900210BA800F047F847
:102F40000F49086014220D49143106A8FDF740F915
:102F5000002106A800F03BF80A490860142207493E
:102F6000283101A8FDF734F9002101A800F02FF85D
:102F70000549086000F01EF800BFFEE7903B00081E
:102F8000080000200C000020100000200146002056
:102F9000842901D0CA1C1018704770B50446254614
:102FA000002D01D0294600E00121084600F0C0FBB9
:102FB000002070BD10B500F0DDFB002010BD10B585
:102FC00000F0B2FC012801D000F06EFC10BDFEB58F
:102FD00004460D460820205EFFF7D8FF064602A8EB
:102FE00000960190238A9AB22B462168606800F00F
:102FF0006DFC012801D00020FEBD0298FCE7000016
:10300000F8B505460E461748076817480068001DC2
:1030100000F0C2FA681C002808D1002E06D0124821
:103020000168091D114800F0F6FA1AE07C190E48F3
:1030300000684460BC4207D20B480168091D0C4877
:10304000006800F0CDFA0CE007480168091D094846
:10305000006800F0C5FA08480068844201D20648BA
:103060000460F8BD500000203C0000203811002012
:1030700044000020400000206C00002010B50446F1
:1030800000F0D6FA20480068401C1F4908601F481D
:103090000068002808D11D4804600846006801281F
:1030A0000ED100F017F90BE019480068002807D18D
:1030B00016480068C06AE16A884201D81348046073
:1030C00014480068401C134908601349E06A096805
:1030D000884202D91049E06A08601422E16A51432B
:1030E0000E4A8818211D00F096FA00F0AFFA084841
:1030F0000068002807D005480068C06AE16A884275
:1031000001D200F009FB10BD4C0000203C00002063
:103110005800002068000020540000205C100020AF
:1031200070B525E000F05CFB14480068002801D170
:10313000012000E00020054600F0A6FC002D17D17C
:1031400000F076FA0D48C068C468201D00F024FA2B
:103150000B480068401E0A4908600A480068401E83
:103160000849086000F072FA204600F00DF800BF30
:10317000044800680028D5D170BD0000241100204B
:103180004C0000204800002010B50446206B00F0E1
:1031900071FA204600F06EFA10BD000030B503232E
:1031A0009B0217484407640F002C05D0C01DC008BF
:1031B000C000134C041B1B1B0246124C226000244F
:1031C000104D6C60D0180838C008C0000E4C20604C
:1031D00000240D4D2D686C600B4D2D682C60114640
:1031E000441A4C60084C24680C60084D4C682C60F4
:1031F000074D4C682C600124E407064D2C6030BD5F
:103200005B04002020000020280000203000002067
:103210002C0000203400002000BFFFF781FF03488E
:1032200000680128F9D900F077FAF6E75C10002071
:10323000FFB581B00F460A9E0C9C216B0398401E7F
:103240008000081800900098C008C0000090009806
:103250004007400F002801D1012000E00020002895
:1032600002D172B600BFFEE7002508E0795D204676
:1032700034304155785D002800D102E06D1C102DDE
:10328000F4D300BF002143200155072E00D30626AA
:10329000E66266640020A064201D00F09EF92046CE
:1032A000183000F09AF924610720801BA061646245
:1032B0000020E064002150200155049A01990098F3
:1032C00000F02AF920600B98002801D00B980460C8
:1032D00005B0F0BD10B5002406E0142161430E4A8C
:1032E000881800F06DF9641C072CF6D30B4800F029
:1032F00067F90B4800F064F90A4800F061F90A48E0
:1033000000F05EF9094800F05BF9044808490860DC
:1033100003480849086010BD5C100020E810002038
:10332000FC10002010110020241100203811002072
:10333000400000204400002010B50146164800E07F
:10334000006803688B42FBD3024643689B188B429C
:1033500004D143684C681B19436001460A464B6818
:103360009B180468A34211D10C4C03682468A34243
:1033700008D04B68046864681B194B6003681B68BD
:103380000B6005E0054B1B680B6001E003680B60F8
:10339000884200D0016010BD2000002028000020DD
:1033A0000B4909680968002901D1012100E00021C9
:1033B000002904D00021C943064A116006E00449EF
:1033C0000968C968C868034A41681160704700000D
:1033D000400000206C00002007480068401C0028C6
:1033E00001D1012000E00020002802D172B600BF08
:1033F000FEE772B600BFFEE738000020F8B50446CD
:103400000020009000F0ECF93E480068002801D14F
:10341000FFF7C4FE3C4800682040002861D1002C22
:1034200015D008346007400F002810D06007400F07
:103430000821081A04196007400F002801D1012053
:1034400000E00020002802D172B600BFFEE7002C89
:1034500047D02E480068844243D82D4E3046056838
:1034600001E02E462D686868A04202D22868002834
:10347000F7D124480068854233D030680830009086
:10348000286830606868001B102813D92F19780746
:10349000400F002801D1012000E00020002802D1C7
:1034A00072B600BFFEE76868001B78606C60384643
:1034B000FFF742FF154968680968081A1349086050
:1034C0000846006813490968884203D20F4800681B
:1034D000104908600C496868096808436860002062
:1034E000286000F0D1FA00984007400F002801D171
:1034F000012000E00020002802D172B600BFFEE7E4
:103500000098F8BD28000020340000202C00002086
:103510002000002030000020001F01231B06036054
:10352000001F0160001F034B036014380260203845
:1035300070470000D933000810B512480078012800
:103540001AD1002405E01048015D10A0FFF748FCE7
:10355000641C0F4800788442F5DB002003E0002162
:10356000094A1154401C0A4909788842F7DB0020B7
:103570000749087003490870FF2203490548FEF710
:103580002FFA10BD14000020300200202563000037
:10359000150000203801002001460A694B68886840
:1035A00098608B68486858605068884201D1886884
:1035B0005060002008611068401E1060106870475D
:1035C0000146083141600021C9438160014608314C
:1035D000C1600161002101607047002101617047F5
:1035E00010B502460B685C1C002C01D1106907E085
:1035F0001046083000E04068446824689C42FAD9CC
:1036000044684C604C68A160886041600A6114683D
:10361000641C146010BD42684A6093688B609368B4
:1036200059609160086103685B1C0360704700008B
:1036300072B605480068401C03490860BFF34F8F0D
:10364000BFF36F8F70470000380000200848006803
:10365000002802D172B600BFFEE705480068401E90
:103660000349086008460068002800D162B6704728
:103670003800002070B506463546002E35D0083D8E
:103680002C461A49606809680840002801D00120CA
:1036900000E00020002802D172B600BFFEE72068DB
:1036A000002801D1012000E00020002802D172B6DC
:1036B00000BFFEE70D49606809680840002814D083
:1036C0002068002811D10949606809688843606052
:1036D00000F086F8064960680968401804490860E7
:1036E0002046FFF729FE00F0CFF970BD340000201E
:1036F0002C00002010B57D21C90005480068FCF7AA
:1037000051FD401E034948610720086110BD0000BB
:103710000000002000E000E00120000703494860AD
:10372000BFF34F8FBFF36F8F7047000000ED00E0D5
:1037300070B504460025002C14D00D480068002800
:1037400001D1012000E00020002802D172B600BFA4
:10375000FEE700F045F800212046FFF751FC00F09D
:1037600093F90546002D01D1FFF7D6FF70BD00008B
:10377000740000201CB5134800210B464022009124
:10378000019011A1124800F0A1F80446012C0DD1BE
:1037900072B60020C0430F49086001200E4908603E
:1037A00000200E49086000F063F80AE0601C002861
:1037B00001D0012000E00020002802D172B600BF35
:1037C000FEE71CBD7000002049444C45000000008D
:1037D000193200086C000020580000205000002022
:1037E00002480068401C01490860704774000020CE
:1037F0001A480068002803D00120194908602CE00D
:103800000020174908601748016805E0002902D127
:1038100072B600BFFEE7491E14204843124A1058F2
:10382000002801D1012000E000200028EED1142260
:103830004A430D4BD0184268526842600246083233
:103840004368934202D14268526842604268D2683B
:10385000064B1A600348016000BF704774000020E7
:1038600060000020540000205C1000203C0000207C
:1038700010B50B48006AFF21090408430849086293
:103880000846006AFF210906084305490862FFF758
:1038900031FF002003490860FCF71CFC002010BD2C
:1038A00000ED00E03800002010B5FCF727FC0446CE
:1038B00000F04CF8002803D00120000702494860BE
:1038C0002046FCF71FFC10BD00ED00E0FFB585B001
:1038D0001746B800FFF792FD0646002E0BD0542085
:1038E000FFF78CFD0446002C01D0266304E030462F
:1038F000FFF7C0FE00E00024002C10D000220F993A
:103900000E986B4613C303923A46089B0699059896
:10391000FFF78EFC2046FFF7B1FB012501E00025F3
:10392000ED43284609B0F0BD06490968002901D1D8
:10393000012006E004490968002901D1022000E0C5
:10394000002070475800002074000020F8B50020C7
:10395000009042480068002872D141480068451C28
:103960003F480560002D1CD13E48006800680028D3
:1039700001D1012000E00020002802D172B600BF72
:10398000FEE7384807683848006836490860364816
:10399000076036480068401C34490860FFF700FDA6
:1039A00000BF3348006885423DD300BF2D48006802
:1039B0000068002801D1012000E00020002804D088
:1039C0000020C0432A4908602CE026480068C068EF
:1039D000C4686668B54202D22548066022E0201D10
:1039E000FFF7DAFDA06A002803D020461830FFF761
:1039F000D3FD2049E06A0968884202D91D49E06A7E
:103A000008601422E16A51431B4A8818211DFFF700
:103A100002FE1A49E06A0968C96A8842C6D30120D1
:103A20000090C3E700BF15480068C06A14214843EE
:103A300011490858012801D90120009005E0FFE74D
:103A40000F480068401C0E4908600E4800680028B6
:103A500001D0012000900098F8BD00007400002003
:103A6000500000204000002044000020640000209E
:103A70006C000020540000205C1000203C0000205E
:103A80005C0000206000002070B500240026324851
:103A90000068002802D172B600BFFEE7FFF7C8FD3C
:103AA0002D480068401E2C49086008460068002820
:103AB0004DD12A480068002849D022E02848C06833
:103AC000C46820461830FFF767FD201DFFF764FD2E
:103AD0002449E06A0968884202D92249E06A0860FC
:103AE0001422E16A5143204A8818211DFFF793FDF3
:103AF0001E49E06A0968C96A884202D301201C494C
:103B0000086017480068002801D1012000E000206B
:103B10000028D3D0002C01D0FFF742FC15480568DF
:103B2000002D0DD000BFFFF711FF002802D00120AB
:103B30000F4908606D1E002DF5D100200D49086069
:103B40000B480068002802D00126FFF7E5FDFFF7CB
:103B50007DFD304670BD0000740000204C00002048
:103B600010110020540000205C1000203C000020B8
:103B7000600000205C000020000000000000000049
:103B80000102030406070809000000000102030403
:103B9000D83B0008332600080000000000000000A9
:103BA00080000000CC3B00083D260008FDFF00001F
:103BB0000000000080000000E43B000855260008DB
:103BC000FDFF000000000000800000006D795461DE
:103BD000736B30326C65640064656661756C745437
:103BE00061736B006D795461736B30337072696E01
:103BF00074000000143C0008000000207C0000005D
:103C0000002E0008903C00087C000020D414000026
:103C1000102E000800127A000000000000000000D2
:103C20000000000000000000000000000000000094
:103C30000000000000000000000000000000000084
:103C4000000000000000000000000000AAAAAAAACC
:103C50000000000000000000000000000000000064
:103C60000000000000000000000000000000000054
:103C70000000000000000000000000000000000044
:103C80000000000000000000000000000000000034
:04000005080000C12E
:00000001FF
